:020000040000fa
:020000040040ba
:10000000f8ff4520c150410039b841003fb84100d8
:100010004bb8410051b8410057b841000000000002
:10002000000000000000000000000000c1a8410026
:1000300045b8410000000000916c4100898b4100ef
:1000400093fb400093fb400093fb400093fb400078
:1000500093fb400093fb400093fb400093fb400068
:1000600093fb40000000000093fb400093fb400026
:1000700093fb400093fb400093fb400093fb400048
:1000800093fb400093fb400093fb400093fb400038
:1000900093fb400093fb400093fb400093fb400028
:1000a00093fb400093fb400093fb400093fb400018
:1000b00093fb400093fb400093fb400093fb400008
:1000c00093fb400093fb4000e1b6410093fb4000ee
:1000d00093fb400093fb400093fb400093fb4000e8
:1000e00093fb400093fb400093fb400093fb4000d8
:1000f000a14e410093fb400093fb400093fb400066
:1001000093fb400093fb40005593410093fb40005c
:1001100093fb400093fb4000000000000000000043
:1001200093fb400093fb400093fb400093fb400097
:1001300093fb400093fb40000000000093fb400055
:1001400093fb400093fb400093fb400093fb400077
:1001500093fb400093fb400093fb400093fb400067
:0801600093fb400093fb4000fb
:020000040000fa
:020000040040ba
:10016800f8b500bff8bc08bc9e467047f99241003c
:10017800f8b500bff8bc08bc9e467047d592410050
:020000040000fa
:020000040040ba
:08018800687200000100000094
:020000040000fa
:020000040040ba
:1001900090b595b000af78600023bb649d4b1b7891
:1001a00003f01003002b00f05c827b68b3f8603032
:1001b0001a467b689b6d13443b637b685a6d964b74
:1001c0001b68d31a002b1bdb7b685a6d924b1b6894
:1001d0009a4206d17b689a6d904b1b68d31a002b0c
:1001e0000edb7b689a6d8d4b1b689a4225d18c4b38
:1001f0001b68db899ab27b68b3f860309a421cd9dd
:10020000874b1b68db899ab27b68a3f860207b6808
:10021000b3f862207b68b3f860309a4205d27b68fd
:10022000b3f860207b68a3f862207b4b1a687b6878
:100230005a657a4b1a687b689a65784b1a687b68ae
:100240005b6cd31a002b58dc764b1b88002b4bd1f0
:100250007b689b6d7a68b2f8602013443a6b9a42cf
:1002600042d17b68b3f93030002b3ddb7b685a6ca0
:100270006a4b1b689a4237d10123bb647b6893f8b1
:100280004330ff2b07d07b6893f843300133dab259
:100290007b6883f843207b6893f84330032b1bd99a
:1002a0007b68b3f848207b685b8e13449ab27b6806
:1002b000b3f848309a420ad37b68b3f848207b6889
:1002c0005b8e13449ab27b68a3f8482004e07b68f5
:1002d0004ff6ff72a3f848207b6893f84330022b57
:1002e00002d9786813f056fdbb6c002b40f05981a1
:1002f0007b68002283f8432053e1484b1a687b68ef
:100300005b6cd31a013b002bc0f24681434b1a6849
:100310007b681b6dd31a002b00f33e817b685b8bdf
:1003200003f00403002b10d07b685b8b23f00403e5
:100330009ab27b685a837b68b3f84a207b68a3f83b
:1003400048207b680022a3f86a207b68002283f89b
:1003500042207b68b3f93c30db101bb29ab27b6859
:10036000b3f93e309bb213449bb21ab27b68a3f838
:1003700040202a4b1b689ab27b685b6c9bb2d31af5
:10038000fb857b68002283f84320244b1a687b6836
:100390005a647b681b7d032b40f28f807b68b3f827
:1003a00048207b68b3f84a309a423dd27b685b8b29
:1003b00003f40063002b01d0012300e0022387f83f
:1003c0002d3097f82d309ab27b685b8e12fb03f3c9
:1003d0009bb2fa8d934228bf13467b857b68b3f8a6
:1003e00048207b8d13449ab27b68b3f848309a4218
:1003f00009d37b68b3f848207b8d13449ab27b689d
:10040000a3f8482059e07b684ff6ff72a3f8482014
:1004100053e000bf57514420d0544420d4544420ca
:10042000c8544420525344207b68b3f86a20fb8da3
:1004300013449ab27b68b3f86a309a4209d37b6856
:10044000b3f86a20fb8d13449ab27b68a3f86a2044
:1004500004e07b684ff6ff72a3f86a207b68b3f86c
:100460006a207b68b3f848309a4226d37b68b3f899
:100470006a207b68b3f84830d31a9ab27b68a3f835
:100480006a207b68b3f848207b685b8e13449ab27d
:100490007b68b3f848309a420ad37b68b3f84820a7
:1004a0007b685b8e13449ab27b68a3f8482004e013
:1004b0007b684ff6ff72a3f848207b68196f7b6852
:1004c000db6e984a786813f01dfa02467b681a675b
:1004d0007b68d96e7b681b6f934a786813f012fab9
:1004e00002467b68da667b681b6f002b04d17b6851
:1004f0004ff6ff721a8602e07b6800221a867b683c
:1005000000221a777b68db6e002b03d17b68002208
:10051000a3f868207b68b3f86420844b1b881344dd
:100520009ab27b68a3f864207b685b8b03f400635a
:10053000002b35d07b681b6f002b18d17b68db6ede
:10054000002b0cd07b68dc6c7b68db6edb685b6847
:10055000184619f037fd0346e31a002b20dc7b68b0
:100560005b8b23f400639ab27b685a8318e07b6844
:10057000dc6c7b681b6fdb685b68184619f022fd3a
:100580000346e31a002b0bdc7b685b8b23f40063d0
:100590009ab27b685a8303e0786813f09ffc00e00e
:1005a00000bf7b685b6b002b5bd07b689a6b604bfa
:1005b0001b68d31a002b54da5e4b1b689ab27b6817
:1005c0005b6b9bb2d31a9bb2a7f84e30b7f84e20a4
:1005d0007b68b3f93c30db101bb29bb2d31a9bb2e1
:1005e000a7f84e307b68b3f93c309ab2b7f84e307a
:1005f00013449bb21ab27b689a87b7f94e30002b2e
:1006000005dab7f84e305b429bb2a7f84e30b7f828
:100610004e207b68b3f93e309b101bb29bb2d31abd
:100620009bb2a7f84e307b68b3f93e309ab2b7f868
:100630004e3013449bb21ab27b68da877b68b3f9f9
:100640003c30db101bb29ab27b68b3f93e309bb2f0
:1006500013449bb21ab27b68a3f840207b68002247
:100660005a63354b1b88002b00f041847b681b7d4f
:10067000062b00f23c847b685a6a304b1b68d31a05
:10068000013b002b5edb7b685a6a2b4b1b881946ab
:100690002a4b1b680b44d31a0133002b52dc284b26
:1006a0005b687b647b685a6a244b1b68d31a7b6245
:1006b0007b6aa7f84230224b1a89b7f84230d31a26
:1006c0009ab21f4b1a811e4b5b681a89b7f84230e9
:1006d000d31a7b840fe07b6c5b89b7f84220d31a76
:1006e000a7f842307b6c7a8c1a817b6c00225a818d
:1006f0007b6c1b687b647b6c5b89b7f842209a42f9
:10070000e9d8b7f842301946786c15f0f3fc7b68ed
:100710005b6a0a4a13600a4bdb68084a12685a602f
:100720001ee000bfd0b64100d8b641004653442079
:10073000d4544420b454442052534420d054442030
:10074000f0524420824b1a687b685b6ad31a002bf4
:1007500006da7b685b8b43f002039ab27b685a83ac
:100760007b4b1a687b685b6ad31a002bc0f2ba8392
:10077000774b1a687b685b6a7968098d0b44d31ada
:100780000133002b00f3ae837b685a6a704b1b6801
:100790009a4240f040826f4b1c896e4bdb689b890c
:1007a0009bb2184619f00eff0346dbb203f00303b9
:1007b000002b01d0012300e0002323449ab2664bb2
:1007c0001a807b681a8d644b1b889a4260d2614bf9
:1007d000db689b899bb2184619f0f4fe0346dbb236
:1007e00003f00103002b1ed05a4bdb689b899bb2a0
:1007f0001bb223f47c531cb2564bdb689b899bb223
:10080000184619f0dffe0346dbb203f03e039bb24d
:10081000184619f0d7fe03461bb223431ab24d4bbc
:10082000db6892b29a817b681a8d4a4b1a81494bd8
:10083000db689b899bb2184619f0c4fe0346dbb205
:1008400003f00203002b05d0424b1b89013b9ab2f7
:10085000404b1a813f4b5b683e4a1289114618464d
:1008600011f0a0fe3b4b1c893a4bdb689b899bb285
:10087000184619f0a7fe0346dbb203f00303002b72
:1008800001d0012300e0002323449ab2324b1a80a6
:100890007b685b6f002b00f0ce802e4bdb689b8962
:1008a0009bb2184619f08efe0346dbb203f001033b
:1008b000002b10d00ae07b685b6ffb607b685b6f8e
:1008c0001a687b685a67f86819f0a0fc7b685b6f50
:1008d000002bf0d1afe07b685b6ffb634be0fb6b01
:1008e000db689b899bb2184619f06cfe0346dbb2ad
:1008f00003f00103002b36d0164bdb689b899bb2bb
:10090000184619f05ffe0346dbb203f00203002b2a
:1009100029d1104bdb689b899cb2012019f052fe53
:1009200003461a460b4bdb68224392b29a81094b6d
:100930001c89084bdb689b899bb2184619f042fe64
:100940000346dbb203f00303002b07d0012306e0cc
:10095000d0544420f05244205253442000232344d6
:100960009ab27e4b1a80fb6b3b61fb6b1b68fb638f
:10097000386919f04bfcfb6b002b0ed0774b1b88b2
:100980001a46774b1b681a44fb6bdb685b68f96b94
:1009900009890b44d31a002ba1dafb6b002b47d03b
:1009a0006e4b1b881a466e4b1b681a44fb6bdb6848
:1009b0005b68d31a002b3bddfb6bdb685b689ab28c
:1009c000674b1b689bb2d31a9ab2664b1a81654b70
:1009d000db689b899bb2184619f0f4fd0346dbb235
:1009e00003f00203002b05d05e4b1b89013b9ab23a
:1009f0005c4b1a815b4b5b685a4a12891146184658
:100a000011f0d0fd574b1c89564bdb689b899bb27c
:100a1000184619f0d7fd0346dbb203f00303002ba1
:100a200001d0012300e0002323449ab24b4b1a80eb
:100a30007b68fa6b5a67494b1b881a46484b1b6800
:100a40001a447b685a627b681a8d444b1b88d31a00
:100a50009ab27b681a85786814f0fcff414b5b689a
:100a60001b89002b06d03f4b5b683f4a13603d4b10
:100a700000225a603b4bdb689b899bb2184619f0f9
:100a8000a1fd0346dbb203f00103002b00f09980c7
:100a9000364b1b7843f02003dab2344b1a7090e0e7
:100aa0007b685b6fbb607b685b6fdb685b682c4a55
:100ab0001360bb681b891c46bb68db689b899bb2c3
:100ac000184619f07ffd0346dbb203f00303002b49
:100ad00001d0012300e000231a197b685b6a1a44e5
:100ae0007b685a62bb68db689b899bb2184619f029
:100af00069fd0346dbb203f00303002bbb681b89cf
:100b00001c46bb68db689b899bb2184619f05afdee
:100b10000346dbb203f00303002b01d0012300e006
:100b2000002319197b681a8d8bb2d31a9ab27b688d
:100b30001a85786814f08effbb685b681b89002bf0
:100b40001dd0094b1b68002b12d0074b1a68bb68dd
:100b50005b681946104616f05eff0de052534420c4
:100b6000d0544420f0524420d8544420ff51442013
:100b7000bb685b68704a1360bb6800225a60bb6840
:100b8000db689b899bb2184619f01cfd0346dbb25b
:100b900003f00103002b0dd0684b1b7843f02003ba
:100ba000dab2664b1a707b681b7d042b02d17b681e
:100bb00007221a75bb681a687b685a67b86819f00b
:100bc00025fb7b685b6f002b08d07b685b6fdb6865
:100bd0005a687b685b6a9a423ff462af7b685b8bc2
:100be00003f00103002b0ed07b685b8b23f0010325
:100bf0009ab27b685a837b685b8b43f002039ab29c
:100c00007b685a8372e17b685b8b43f001039ab285
:100c10007b685a836ae17b685b6f002b06d148488a
:100c200019f00cf802467b685a6757e100237b6392
:100c30007b685b6fbb6341e1bb6bdb685a68414b10
:100c40001b689a421dd13e4b1a89bb6b1b899a4285
:100c500040f239813a4818f0f1ff78617b69002b46
:100c600000f033817b6b002b03d07b6b7a691a60b9
:100c700002e07b687a695a67b96b78690ff078fe91
:100c800023e17b6b002b17d12e4b1a68bb6bdb6803
:100c90005b68d31a002b57da294818f0cfffb861e8
:100ca000bb69002b00f013817b68ba695a67b96b86
:100cb000b8690ff05dfe0ae1224b1a687b6bdb68b6
:100cc0005b68d31a013b002b3edb1e4b1a68bb6be3
:100cd000db685b68d31a0133002b35dc184818f049
:100ce000adfff861fb69002b00f0f3807b6bdb68e4
:100cf0005b687a6b12891a44124b1b68d31a002b5b
:100d000012dd104b1b689ab27b6bdb685b689bb291
:100d1000d31a9ab27b6b1a817b6b5a687b6b1b89e7
:100d20001946104611f03efc7b6bfa691a60b96bec
:100d3000f8690ff01dfecce0d8544420ff51442048
:100d4000f0524420d0544420bb6b7b63bb6b1b68c8
:100d5000002b40f0b080754b1a68bb6bdb685b689a
:100d6000d31a002b40f3a780bb6bdb689b899bb237
:100d7000184619f027fc0346dbb203f00103002bf1
:100d800040f0a9806a4818f059ff0246bb6b1a6010
:100d9000bb6b1b68002b00f0a080bb6bdb685b6843
:100da000ba6b12891a44614b1b68d31a002b12ddef
:100db0005e4b1b689ab2bb6bdb685b689bb2d31a55
:100dc0009ab2bb6b1a81bb6b5a68bb6b1b89194605
:100dd000104611f0e7fb574b1b881a46534b1b6814
:100de0001a447b685b6a7968098d0b44d31a002b1f
:100df00073ddbb6b1b68db689b899bb2184619f0df
:100e0000e1fb0346dbb203f00103002b21d0bb6bf7
:100e10001b68db689b899bb21bb223f47c531cb21a
:100e2000bb6b1b68db689b899bb2184619f0cafb39
:100e30000346dbb203f03e039bb2184619f0c2fb37
:100e400003461bb223431ab2bb6b1b68db6892b22a
:100e50009a817b685b6a9ab27b681b8d134499b256
:100e6000324b1b689ab2bb6b1b688a1a92b21a810a
:100e7000bb6b1b685a68bb6b1b681b891946104605
:100e800011f090fbbb6b1b681c89bb6b1b68db689c
:100e90009b899bb2184619f095fb0346dbb203f021
:100ea0000303002b01d0012300e0002323449ab266
:100eb000204b1a8011e0bb6b1b68bb63bb6b002b24
:100ec0007ff4baae0ae000bf08e000bf06e000bf52
:100ed00004e000bf02e000bf00e000bf786812f04d
:100ee000fdff03e0786812f0f9ff1ae019e00f4bfc
:100ef0001a687b685b6ad31a002b0adb0b4b1a68f3
:100f00007b685b6a7968098d0b44d31a0133002b27
:100f100007dd7b685b8b43f002039ab27b685a83e0
:100f2000ffe700bf5437bd4690bd00bfd0544420fa
:080f3000f0524420525344200a
:020000040000fa
:020000040040ba
:100f3800005244201c000000000000000053442020
:100f48000c000000000000009c5344200800000032
:100f5800000000005851442030000000000000004c
:100f6800b45344200c000000000000001456442034
:100f78000400000001000000640000002c1f442051
:100f88000008000000000000804c44205c000000c5
:100f98000000000030444420000100000000000070
:100fa80083df43200100000000000000802d442062
:100fb8000004000000000000dc4c44205c0000003d
:100fc80000000000c053442004000000000000009e
:100fd8002c0744200018000000000000c4534420df
:100fe8000c000000000000007f2d442001000000dc
:100ff800000000001c5244201c00000000000000fb
:10100800185644201c00000001000000f0ca4000ef
:10101800f4ca4000f8ca4000fcca400000cb4000b7
:1010280004cb400008cb4000803144200008000079
:10103800000000001055442080000000010000005e
:10104800001a0e4000000000000000000000000030
:101058000000000000000000000000000000000088
:101068000000000000000000000000000000000078
:101078000000000000000000000000000000000068
:101088000000000000000000000000000000000058
:101098000000000000000000000000000000000048
:1010a8000000000080314420803544200004000006
:1010b8000004000000000000000000000000000024
:1010c800345644200400000001000000aaaaaaaa7d
:1010d800eb4044200100000000000000d0534420f1
:1010e8000400000000000000000040200020030071
:1010f80000000000a4534420080000000000000085
:10110800d453442014000000000000002c50442058
:101118004000000000000000e853442004000000e4
:10112800000000001c4c4420640000000000000087
:10113800505244202800000000000000ec534420d6
:101148000800000000000000785244202800000039
:1011580000000000f45344200400000000000000d8
:10116800a05244201400000000000000f85344205e
:101178002c00000000000000384d44205c000000f6
:1011880000000000803d4420000200000000000034
:10119800944d44205c000000000000008039442089
:1011a8000004000000000000b452442028000000a1
:1011b8000000000024544420140000000000000037
:1011c800a84e4420a000000000000000045644205f
:1011d80006000000010000000101000000000000fe
:1011e800ac5344200800000000000000385444209c
:1011f8000800000000000000274244200100000011
:1012080000000000f04d44205c00000000000000d9
:101218002b4344200100000000000000304544201a
:101228000001000000000000405444200c000000b1
:10123800000000002f4444200100000000000000ce
:101248004c5444200c000000000000003856442094
:101258000400000001000000efbeadde2cf74320c3
:101268000010000000000000b851442028000000d1
:10127800000000005854442008000000000000004e
:101288008851442030000000000000000c56442023
:1012980006000000010000000202846a96000000b7
:1012a8006054442004000000000000004c4e44201c
:1012b8005c00000000000000ec554420180000000d
:1012c800010000007cb841009c704100ac704100f6
:1012d80000000000c070410000000000e84f4420fa
:1012e8004200000000000000645444200400000094
:1012f80000000000385244201800000000000000e0
:1013080028474420f0000000000000007b494420ea
:1013180001000000000000002a50442002000000e4
:101328000000000068544420040000000000000091
:101338001653442002000000000000002c2744201f
:1013480053060000000000006c5444201000000008
:1013580000000000a84b44207300000000000000bb
:101368000c5344200a000000000000007c54442074
:1013780004000000000000001c4a44208300000014
:1013880000000000185344200a000000000000007c
:10139800805444200400000000000000ec40442079
:1013a8003b01000000000000245344200a00000014
:1013b80000000000845444200400000000000000e5
:1013c800e05144201f00000000000000305344207a
:1013d8000a000000000000008854442004000000b7
:1013e8000000000028424420030100000000000023
:1013f8003c5344200a000000000000008c544420a4
:101408000400000000000000d8484420a3000000a9
:1014180000000000485344200a00000000000000bb
:10142800905444200400000000000000803f442045
:101438006b01000000000000545344200a00000023
:101448000000000094544420040000000000000044
:10145800a04a44208300000000000000605344209c
:101468000a00000000000000985444200400000016
:1014780000000000244b442083000000000000000e
:101488006c5344200a000000000000009c544420d3
:101498000400000000000000245144203300000034
:1014a80000000000785344200a00000000000000fb
:1014b800a054442004000000000000002c434420f5
:1014c8000301000000000000845344200a000000cb
:1014d80000000000a45444200400000000000000a4
:1014e8000020432083bf00000000000090534420e8
:1014f8000a00000000000000a85444200800000072
:10150800000000009f4a4420010000000000000085
:10151800234b44200100000000000000b054442088
:10152800040000000000000030464420f8000000dd
:101538000000000076534420020000000100000073
:1015480000c00000b4544420140000000000000053
:10155800a74b442001000000000000001b4c442061
:101568000100000000000000eb50442001000000d2
:10157800000000003c564420040000000100000068
:101588006e190000f0524420100000000000000016
:10159800c8544420040000000000000022534420e6
:1015a80002000000000000002e534420020000004a
:1015b80000000000cc54442004000000000000009b
:1015c8003a5344200200000000000000d054442098
:1015d80008000000000000004653442002000000fc
:1015e80000000000525344200200000000000000e8
:1015f800575144200100000000000000ff51442022
:101608000100000000000000d8544420140000002d
:1016180000000000ec54442004000000000000001a
:10162800ec504420380000000000000084df432014
:10163800a817000000000000ac5044203f00000044
:10164800000000005e53442001000000000000007c
:10165800f054442004000000000000005f534420c0
:1016680001000000000000006b534420010000004e
:1016780001000000ff000000f454442004000000b2
:101688000000000018484420c000000000000000ce
:10169800905544205c0000000100000010000c0080
:1016a8001848442008b8410000000000000000006d
:1016b8000000000000000000000000000000000022
:1016c8000000000000000000000000000000000012
:1016d8000000000000000000000000000000000002
:1016e80000000000000000000000000000000000f2
:1016f8000000000000000000f8544420040000002e
:1017080000000000484f4420500000000000000086
:10171800fc5444200400000000000000dc52442077
:1017280014000000000000006c504420400000003d
:10173800000000007c494420a000000000000000d8
:101748006a53442001000000000000000c554420aa
:1017580002000000000000000055442004000000c2
:1017680000000000984f44205000000000000000d6
:10177800045544200800000000000000000000009c
:101788000000000066666666666666666666666689
:020000040000fa
:020000040040ba
:1017980090b58db004af786039609b4bb3f8923048
:1017a80001339ab2984ba3f892207b685b68974afa
:1017b80013607b685b89132b08d8934bb3f89a3076
:1017c80001339ab2904ba3f89a20a3e3904b5b693c
:1017d8008f4a12681146184614f07cf80346002b0d
:1017e80005d18b4b5b6903f0f003e02b08d1864be6
:1017f800b3f8a03001339ab2834ba3f8a02089e351
:101808007b681a89834b0093834b0621786818f00c
:10181800ebfe03463b823b8a002b08d07a4bb3f899
:10182800983001339ab2784ba3f8982072e3774b3b
:101838001b689b899bb2184618f0c0fe03461b0b19
:101848009bb2dbb29b00fb73fb7b132b05d9fb7ba5
:101858009ab27b681b899a4208d96b4bb3f89a30c5
:1018680001339ab2684ba3f89a2053e3fb7b9bb2ef
:10187800143b9ab2694b1a80694b00221a607b6844
:101888005a89fb7b9bb29a4209d3644b1a88654bf1
:101898001a80fb7b1946786814f028fc35e014217f
:1018a800786814f023fc7b685a895e4b1a805b4b7e
:1018b8001a885c4b1b88d31abb815a4b1b88194664
:1018c800786814f013fc7b681b685b89ba899a42b4
:1018d80008d94d4bb3f89a3001339ab24a4ba3f862
:1018e8009a2017e37b681b685b684d4a13607b6826
:1018f8001b68ba891146184614f0f8fb7b681a89e8
:10190800bb89d31a9ab27b681a81404b1b681b8823
:101918009bb23e4a1468184618f050fe03462380ce
:101928003a4b1b685b889bb2384a1468184618f013
:1019380045fe03466380354b1b685b68334a146871
:10194800184618f03bfb034663606368364a136029
:101958002e4b1b689b682d4a1468184618f02efbfe
:101968000346a360a368314a1360284b1b68db89d0
:101978009bb2264a1468184618f020fe0346e381f5
:10198800224b1b689b899bb2184618f017fe03462a
:10199800dbb203f03f03dab2254b1a707b681a8971
:1019a800244b1a80224b1b7803f00303002b14d01e
:1019b800204b1b8801339ab21e4b1a807b681a8908
:1019c8001c4b1b889a4208d90f4bb3f89a30013345
:1019d8009ab20d4ba3f89a209ce20023bb61164be8
:1019e8001b68fb6163e0fb691b7a002b26d0fb694f
:1019f8001a7a074b5b6893f82c300133dbb29a42b2
:101a08001cd0fb69bb614fe030464420c8544420d9
:101a1800385244204c5244204852442022534420f7
:101a2800cc5444202e534420d0544420d454442031
:101a38005751442052534420c0544420fb691a8b08
:101a4800684b1b681b889bb29a422bd1fb69da8ac8
:101a5800644b1b685b889bb29a4223d1fb695a6826
:101a6800614b1b699a421dd1fb691a685e4b5b6921
:101a78009a4217d1bb69002b0bd0fb69da68bb69a6
:101a8800da605a4b1a68fb69da60584afb691360d6
:101a980010e0574bb3f8a63001339ab2544ba3f871
:101aa800a62007e0fb69bb61fb69db68fb61fb699a
:101ab800002b98d1fb69002b40f0a0804d4b1b6890
:101ac800fb6134e0fb691b7a002b09d0fb691a7aa9
:101ad800454b5b6893f82c300133dbb29a4222d134
:101ae800fb691a8b3f4b1b681b889bb29a421bd120
:101af800fb69da8a3b4b1b685b889bb29a4213d11d
:101b0800fb695a68384b1b699a420dd1fb691a6800
:101b1800354b5b699a4207d1f8690ff097fe7868f0
:101b280011f035fd03e200bffb69db68fb61fb696f
:101b3800002bc7d10023bb612f4b1b687b612ae0b8
:101b48007b691b7a002b0cd07b691a7a264b5b6861
:101b580093f82c300133dbb29a4202d07b69bb6127
:101b680016e07b69da8a1f4b1b685b889bb29a4236
:101b78000cd17b691a681c4b5b699a420fd07b6950
:101b8800002b0dd07b691b68002b09d07b69bb61da
:101b98007b69db687b617b69002bd1d100e000bfea
:101ba8007b69002b2ad0bb69002b0bd07b69da68d4
:101bb800bb69da60104b1a687b69da600e4a7b6988
:101bc800136007e00a4bb3f8a63001339ab2084b0a
:101bd800a3f8a620786908f0dfff786811f0d7fc31
:101be800a5e100bfc854442038524420c0544420c2
:101bf80030464420c4544420bc544420fb69002b84
:101c080000f04e819c4b00221a607b681a899a4b1f
:101c18001a81994a7b685360984b1b68964ad3602f
:101c2800974b00221a60974b00221a70964b00229d
:101c38001a80964b1b7803f00803002b06d07b68ac
:101c48005b7b43f00103dab27b685a73fb699b6fd5
:101c5800002b1ed0f8690ff091fa034613f10d0f0f
:101c680007d0fb699b6f002b13d0894b1b88002b77
:101c78000fd0fb695b8d002b02d1f86912f02af9ad
:101c8800844bb3f8963001339ab2824ba3f896206e
:101c9800dfe0814afb691360f86900f059f90346ef
:101ca800fb7497f9133013f10d0f00f0c780754bd3
:101cb8001b7803f00803002b15d0fb69d3f890308c
:101cc800002b08d0fb69d3f89030fa6912696ff0dd
:101cd8000d0110469847f969704812f09df9f869a6
:101ce80019f096fab5e00023fb74674b1b88002bac
:101cf8001dd0654b1b887b81fb69d3f88030002b96
:101d08000ad0fb69d3f88030fa6910697a89f969d1
:101d180098470346fb7401e00023fb7497f91330de
:101d280013f10d0f00f08c80574b00221a80f869d0
:101d380015f0cafa0346002b40f08480504b1b680c
:101d4800002b36d0fb695b8b03f01003002b08d007
:101d58004b4b1b68184611f01afcf86919f070fa19
:101d680077e0fb69d3f88430002b0cd0fb69d3f8fb
:101d78008440fb691869424b1a680023f969a04737
:101d88000346fb7408e03e4b1a680023f9690020fb
:101d980016f004fc0346fb7497f9133013f10d0f8a
:101da80052d097f91330002b03d0354b1a68fb69d2
:101db8009a67344b1b7803f02003002b31d0fb6962
:101dc8009b6f002b09d0fb699b6f5a7bfb699b6f4c
:101dd80042f02002d2b25a7323e0fb691b8d41f214
:101de800d062934205d0fb691b8d01339ab2fb691f
:101df8001a85fb69d3f88430002b0bd0fb69d3f824
:101e08008440fb69186900230022f969a04703464a
:101e1800fb7401e00023fb7497f9133013f10d0fe5
:101e280014d01d4b00221a60f86915f04dfa0346cc
:101e3800002b0dd1f86904f019f80ae000bf08e09a
:101e480000bf06e000bf04e000bf02e000bf00e002
:101e580000bf114b00221a60094b00221a60064b82
:101e68005b68002b62d0044b5b68184611f08ffb4f
:101e7800014b00225a6059e0f0524420c8544420d3
:101e8800d8544420ff5144204653442057514420fd
:101e98005253442030464420dc544420c05444204b
:101ea800244b1b689b899bb2184618f087fb034696
:101eb800dbb203f00403002b28d11f4bb3f8a0308a
:101ec80001339ab21c4ba3f8a0201b4bb3f89630f1
:101ed80001339ab2184ba3f89620184b1968184b7f
:101ee8001b881a46174b1b68d018124b1b685b8857
:101ef8009bb2104a1268128892b202920193124b56
:101f08000093124b0246002014f01efe786811f070
:101f18003efb0be0084bb3f8963001339ab2064b00
:101f2800a3f89620786811f032fb00e000bf243750
:101f3800bd4690bdc854442030464420d454442063
:101f480052534420d0544420485244204c524420f8
:020000040000fa
:020000040040ba
:101f580090b58db004af78600023fb760023bb7684
:101f68009c4b1b7803f00403002b43d07b681b7d3c
:101f7800022b08d17b681a6d974b1b689a4223d1b4
:101f88000123fb7620e07b685a6a944b1b689a42cf
:101f980002d10123fb7617e0904b1a687b685b6ad5
:101fa800d31a002b10db8d4b1a687b685b6a796843
:101fb800098d0b44d31a002b06dc7b685b8b43f03e
:101fc80002039ab27b685a83fb7e002b10d0844ba5
:101fd8001b7843f00803dab2814b1a707b685b8b7d
:101fe80023f001039ab27b685a836ff00d0345e32f
:101ff800002343e3774b1b7803f00203002b10d038
:102008007b681b7d022b0cd07b681b7d032b08d0c3
:102018007b685b8b43f002039ab27b685a83002388
:102028002ce37b685b8b03f01003002b03d16d4b13
:102038001a687b681a627b68002283f89b207b6899
:10204800002283f89a2078680ff0a0fd7b681b7d3a
:10205800023b072b00f2028301a252f823f000bfd3
:102068008920400073224000d3234000fd23400014
:1020780013254000d32340009f2540002f26400011
:10208800544b1b7803f01003002b00f0c180514b18
:102098001b7803f00203002b00f0ba807b685b6cae
:1020a8005a1c4d4b1b689a4240f0b2804b4b1b6840
:1020b8005a1c7b685a627b685a6a7b68da62464bac
:1020c8001a687b685a64484b1b68db899ab27b683c
:1020d800a3f860207b68b3f860207b68a3f86220cf
:1020e8003e4b1b685a1e7b685a657b6804221a752a
:1020f8007b685c8e7b680433184614f0f7f9014658
:102108007b6804331a46204615f08cfd03461a46b0
:102118007b685a867b685b8e9a007b685b8e5b0067
:1021280041f21c118b4238bf0b469a4204d27b689d
:102138005b8e9b009bb20de07b685b8e5b0041f27f
:102148001c12934204d97b685b8e5b009bb201e052
:1021580041f21c137a68a2f848307b68b3f86630fd
:10216800013b9ab27b68a3f866207b681b6ffb6112
:10217800fb69002b07d17b68db6efb61fb691a6882
:102188007b68da6603e0fb691a687b681a67f86996
:1021980018f038f87b681b6f002b04d17b684ff66a
:1021a800ff721a8606e07b6800221a867b68002286
:1021b80083f842207b68d3f88830002b16d07b68e0
:1021c800d3f888307a6810690022796898470346fe
:1021d800bb760de057514420d4544420d0544420b9
:1021e800ff514420b4544420c85444200023bb76f3
:1021f80097f91a3013f10d0f02d16ff00c033de27d
:102208007b685b8b43f002039ab27b685a8327e2b0
:10221800964b1b7803f01003002b00f02182944b9f
:102228001968944b1b881a46934b1b68d018934b1c
:102238001b685b889bb2914a1268128892b202921c
:1022480001938f4b00938f4b0246786814f07cfc07
:102258007b6893f84230052b00f202827b680022eb
:102268001a86786818f0f7fcfae1804b1b7803f0bf
:102278001003002b00f095807d4b1a687b685b6c1f
:10228800d31a013b002b72db794b1a687b681b6df4
:10229800d31a002b6bdc7b6804221a757b68db6f12
:1022a800002b02d1fa23bb7611e07b68db6f9b69b8
:1022b800002b0ad07b68db6f9b697a681069002263
:1022c800796898470346bb7601e0f023bb7697f917
:1022d8001a30002b0ad097f91a3013f10d0f02d0db
:1022e800786818f0adff6ff00c03c7e17868fdf768
:1022f8004bff654b1b88002b05d0634b1b88013bac
:102308009ab2614b1a807b685b8e9a007b685b8e01
:102318005b0041f21c118b4238bf0b469a4204d233
:102328007b685b8e9b009bb20de07b685b8e5b00dd
:1023380041f21c12934204d97b685b8e5b009bb20e
:1023480001e041f21c137a68a2f848304f4b1b7821
:1023580003f02003002b37d07b685b8b43f002032c
:102368009ab27b685a837b6807221a752ce0404b27
:102378001968404b1b881a463f4b1b68d0183f4bc7
:102388001b685b889bb23d4a1268128892b202921f
:1023980001933b4b00933b4b0246786814f0d4fb07
:1023a80060e1324b1b7803f00203002b00f05a81e6
:1023b8007b685b6a5a1e304b1b689a4240f0528118
:1023c800786810f00ffe4de14ce17868fdf7dcfe0f
:1023d8002e4b1b7803f02003002b00f045817b680f
:1023e8005b8b43f002039ab27b685a837b680722af
:1023f8001a7539e17868fdf7c7fe244b1b7803f09e
:102408002003002b6ad0194b1b7803f01003002b14
:1024180059d07b681a6d164b1b689a4253d17b685a
:10242800db6e002b4fd17b685b8b43f002039ab2c3
:102438007b685a83786812f047ff154b1b687a68e7
:102448009a4205d1124b1b68db68114a136027e0da
:102458000f4b1b687b6120e07b69db687a689a42d6
:1024680018d17b68da687b69da6019e05751442033
:10247800d454442052534420d0544420c8544420b7
:10248800485244204c52442046534420ff51442093
:10249800c05444207b69db687b617b69002bdbd1fe
:1024a8007b680022da60774b01221a707b680a2267
:1024b8001a75754b1a687b68da60734a7b68136013
:1024c80017f0e4f8d2e07b685b8b43f002039ab222
:1024d8007b685a837b6808221a75c7e06b4b1b78a8
:1024e80003f01003002b00f0c1807b681a6d684b65
:1024f8001b689a4240f0ba807b68db6e002b40f084
:10250800b5807b6806221a75b0e07868fdf73cfe56
:10251800604b1b7803f02003002b00f0a9807b6838
:102528005b8b43f002039ab27b685a83786812f097
:10253800cbfe594b1b687a689a4205d1564b1b68eb
:10254800db68554a136013e0534b1b683b610ce092
:102558003b69db687a689a4204d17b68da683b6930
:10256800da6005e03b69db683b613b69002befd132
:102578007b680022da60434b01221a707b680a22ca
:102588001a75414b1a687b68da603f4a7b681360aa
:1025980017f07cf86ce07868fdf7f6fd3b4b1b788c
:1025a80003f01003002b65d07b681a6d384b1b684d
:1025b8009a425fd17b68db6e002b5bd1786812f0a2
:1025c80083fe354b1b687a689a4205d1324b1b68eb
:1025d800db68314a136013e02f4b1b68fb600ce08b
:1025e800fb68db687a689a4204d17b68da68fb6822
:1025f800da6005e0fb68db68fb60fb68002befd165
:102608007b680022da601f4b01221a707b680a225d
:102618001a751d4b1a687b68da601b4a7b68136061
:1026280017f034f826e07868fdf7aefd174b1b78f5
:1026380003f01003002b1fd07b681a6d144b1b6826
:102648009a4219d17b68db6e002b15d1114b1b7890
:1026580043f01003dab20f4b1a700de000bf0ce024
:1026680000bf0ae000bf08e000bf06e000bf04e0ca
:1026780000bf02e000bf00e000bf00231846243777
:10268800bd4690bda74b4420c45444205751442014
:0c269800d4544420ff514420c05444207e
:020000040000fa
:020000040040ba
:1026a400556c746973000000646576005072696e3d
:1026b40074206c697374206f6620646576656c6f32
:1026c40070657220636f6d6d616e6473000000004d
:1026d40068656c70000000005072696e74206c694b
:1026e4007374206f6620636f6d6d616e6473205b1d
:1026f4004669726d776172653a20315d00000000b1
:10270400636c7300436c6561727320746865206345
:102714006f6e736f6c65000054696d650000000096
:102724007274635f7365740053657420525443205c
:1027340074696d653a207274635f736574203c68d4
:102744003e203c6d3e203c733e203c44443e203cb5
:102754004d4d3e203c59593e000000007274635fa9
:1027640067657400476574205254432e2055736185
:1027740067653a207274635f676574203c686172b0
:10278400647c736f66747c776f726b7c65706f6347
:10279400687c616c6c3e000065706f63685f736594
:1027a40074000000536574205254432074696d65ad
:1027b4002062792065706f63683a207274635f7376
:1027c400657465706f6368203c65706f63683e0074
:1027d40053797374656d00006f735f737461740073
:1027e400436865636b204672656552544f53207489
:1027f40061736b733a206f735f73746174000000cc
:10280400646d6573670000005072696e7420646db6
:10281400657367206c6f67733a20646d6573672016
:102824005b4e5d00726573657400000052657365ec
:1028340074204d43553a207265736574000000009e
:102844001b5b324a0000000055736167653a2072d1
:1028540074635f736574203c686f75723e203c6dd1
:10286400696e7574653e203c7365636f6e643e20cb
:102874003c6461793e203c6d6f6e74683e203c7907
:102884006561723e00000000496e76616c696420e7
:10289400686f757220286d75737420626520302d01
:1028a4003233292e20506c6561736520656e746522
:1028b4007220616761696e2e00000000496e7661c6
:1028c4006c6964206d696e75746520286d75737408
:1028d40020626520302d3539292e20506c656173b6
:1028e4006520656e74657220616761696e2e0000f3
:1028f400496e76616c6964207365636f6e64202829
:102904006d75737420626520302d3539292e205061
:102914006c6561736520656e7465722061676169b9
:102924006e2e0000496e76616c69642064617920c2
:10293400286d75737420626520312d3331292e2062
:10294400506c6561736520656e74657220616761a2
:10295400696e2e00496e76616c6964206d6f6e74c9
:102964006820286d75737420626520312d313229f9
:102974002e20506c6561736520656e7465722061ec
:102984006761696e2e000000496e76616c6964208f
:102994007965617220286d75737420626520322018
:1029a4006469676974732c20652e672e2c20323578
:1029b40020666f722032303235292e20506c6561ca
:1029c400736520656e74657220616761696e2e009f
:1029d4002d2d3e205254432073657420746f20259e
:1029e4003032643a253032643a253032642c202562
:1029f4003032642f253032642f3230253032640077
:102a04000000000055736167653a207274635f6764
:102a14006574203c686172647c736f66747c776f44
:102a2400726b7c65706f63687c616c6c3e00000047
:102a340068617264000000004661696c656420741a
:102a44006f206765742068617264205254430d0ad4
:102a540000000000736f6674000000002d2d3e20fe
:102a6400536f6674205254433a2054696d653a207a
:102a7400253032643a253032643a253032642c20d1
:102a8400446174653a20253032642f253032642f36
:102a94003230253032640000776f726b0000000022
:102aa4002d2d3e20576f726b696e672055707469c7
:102ab4006d653a2054696d653a20253032643a25b3
:102ac4003032643a253032642c20446179733a20e0
:102ad4002564000065706f63680000002d2d3e20a2
:102ae40045706f63683a20256c750000616c6c005a
:102af400556e6b6e6f776e206d6f64652e20557307
:102b0400653a207274635f676574203c686172641f
:102b14007c736f66747c776f726b7c65706f6368af
:102b24007c616c6c3e00000055736167653a2072ed
:102b340074635f73657465706f6368203c65706f60
:102b440063683e00496e76616c69642065706f63ea
:102b5400682e204d757374206265203e3d20256cdf
:102b6400750000004e756d626572206f6620746199
:102b7400736b732072756e6e696e673a20256c757f
:102b8400000000004e6f207461736b7320666f75d4
:102b94006e64206f72206572726f72206f6363754a
:102ba400727265642e000000546f74616c2054616d
:102bb400736b733a20256c75000000005461736bcd
:102bc400204e616d652020202020202020202053cd
:102bd4007461746520202020205072696f20205376
:102be4007461636b204c6566740000002d2d2d2ddf
:102bf4002d2d2d2d2d2d2d2d2d2d2d2d2d2d2d2d01
:102c04002d2d2d2d2d2d2d2d2d2d2d2d2d2d2d2df0
:102c14002d2d2d2d0000000052756e6e696e67001b
:102c24005265616479000000426c6f636b656400f7
:102c340053757370656e640044656c6574656400f7
:102c4400556e6b6e6f776e00252d31387320252df0
:102c540031307320252d346c75202531306c75008e
:102c6400446d657367202d204c6f67676572204d36
:102c74006573736167653a002d2d3e204f6c646562
:102c84007374203e3e0000002d2d3e204c6174657f
:102c94007374203c3c0000004c61746573742025ff
:092ca4006c75204c6f67733a0057
:020000040000fa
:020000040040ba
:102cb00090b5abb000af78600b46fb70002387f88f
:102cc000a7307b685b78023b052b00f2578201a29c
:102cd00052f823f0ed2c4000412d40000d2d400016
:102ce000272d4000f32f4000093040009e4b00226a
:102cf0001a709d4b00225a709b4b00221a719a4bfe
:102d000000229a70012387f8a73042e2964b1b7885
:102d1000dbb2002b00f03682934b01229a70012324
:102d200087f8a7302ee2904b1b78dbb2002b00f027
:102d30002b828d4b00229a70012387f8a73023e263
:102d4000002387f8a63048e097f8a63087f8973038
:102d50000023c7f89030854b1b7897f897209a424c
:102d60000bd2834b196897f897201346db00134466
:102d70009b000b44c7f8903014e07c4b1b7897f80d
:102d80009720d31a87f8973097f89730002b09d1fe
:102d900097f897201346db0013449b00754a1344b1
:102da000c7f89030d7f89030c7f89830d7f89830f7
:102db000002b0dd0d7f898301b6a002b08d0d7f81d
:102dc00098301b6a7a6810787a685268114698477a
:102dd00097f8a630013387f8a630644b1b7801338f
:102de000dbb297f8a6209a42aed35f4b9b78dbb25a
:102df000002b71d05c4b00229a7007f11c0300225b
:102e00001a605a609a607b681b783b7705237b7752
:102e100007f11c03c7f88c30fb7887f88b30564bd2
:102e20001b68c7f88430d7f88c30c7f8803097f823
:102e30008b3087f87f3097f87f3083f00103dbb267
:102e4000002b0fd000234ff0ff32d7f88010d7f8b7
:102e5000840007f0abf80346002b14bf01230023c6
:102e6000dbb21ce00023bb6107f118020023d7f896
:102e70008010d7f8840009f0c4fcb867bb69002b48
:102e800007d03e4b4ff080521a60bff34f8fbff315
:102e90006f8fbb6f002b14bf01230023dbb283f0c5
:102ea0000103dbb2002b09d0354b7b677b6f1b68be
:102eb00003f00103002b0ed000be0ce0d7f88c30dd
:102ec0001878d7f88c305b78194697f88b301a460b
:102ed00018f0bcf800e000bf234b9b79dbb23b67e6
:102ee000002387f86f3097f86f303a6f22fa03f3b8
:102ef00003f00103002b14bf01230023dbb2002bde
:102f000000f0448107f10c0300221a605a609a60b5
:102f10007b681b783b7303237b737b685b683b6137
:102f200007f10c03bb66fb7887f86730124b1b6810
:102f30003b66bb6efb6597f8673087f85b3097f8a8
:102f40005b3083f00103dbb2002b1bd000234ff07a
:102f5000ff32f96d386e07f029f80346002b14bfd5
:102f600001230023dbb228e0ac5044205f5344200f
:102f7000f0544420b0ab4100f854442004ed00e08c
:102f8000f0ed00e00023bb6007f108020023f96dbb
:102f9000386e09f036fc7865bb68002b07d0ad4b66
:102fa0004ff080521a60bff34f8fbff36f8f7b6d6e
:102fb000002b14bf01230023dbb283f00103dbb23b
:102fc000002b09d0a44b3b653b6d1b6803f001034c
:102fd000002b0cd000be0ae0bb6e1878bb6e5b788d
:102fe000194697f867301a4618f030f800e000bf2d
:102ff000cce09a4b1b78dbb20133dab2974b1a70f4
:10300000012387f8a730c4e07b681b7987f8a530d7
:1030100097f8a53087f84e3097f84e3003f00f033d
:10302000dbb287f8a43097f8a53087f84f3097f8cf
:103030004f30db09dbb287f8a330012387f8a730d4
:1030400097f8a430002b00f0a38097f8a42097f8fd
:10305000a330834952000a44134417331b7887f87e
:103060004d300023bb647f4b1b7897f84d209a426c
:103070000ad27d4b196897f84d201346db001344a4
:103080009b000b44bb6413e0764b1b7897f84d20f4
:10309000d31a87f84d3097f84d30002b08d197f8a8
:1030a0004d201346db0013449b00704a1344bb645d
:1030b000bb6cc7f89c30d7f89c30002b68d0d7f891
:1030c0009c30db69002b63d097f8a42097f8a330dd
:1030d000634952000a44134403f12802d37823f0d1
:1030e0000103d37097f8a42097f8a3305c495200ed
:1030f0000a44134403f12802d37823f00403d37065
:10310000d7f89c30dc697b6818787b685a797b68d3
:103110009b6897f8a510a0470346002b14bf012316
:103120000023dbb283f00103dbb287f8a73097f806
:10313000a73003f0010387f8a73097f8a730002bda
:1031400026d097f8a42097f8a330454952000a44a6
:10315000134403f12802d37843f00103d37097f8a6
:10316000a42097f8a3303e4952000a44134403f1c7
:103170002802d37843f00403d37009e0012387f8d1
:10318000a73006e000bf04e000bf02e000bf00e09f
:1031900000bf97f8a730002b58d07b687b64fb7882
:1031a00087f84330324b1b68fb637b6cbb6397f83b
:1031b000433087f8373097f8373083f00103dbb2bc
:1031c000002b0dd000234ff0ff32b96bf86b06f0e7
:1031d000edfe0346002b14bf01230023dbb21ae0ef
:1031e0000023bb6207f128020023b96bf86b09f0da
:1031f00008fb3863bb6a002b07d0164b4ff0805298
:103200001a60bff34f8fbff36f8f3b6b002b14bf60
:1032100001230023dbb283f00103dbb2002b09d0d2
:103220000d4bfb62fb6a1b6803f00103002b0cd003
:1032300000be0ae07b6c18787b6c5b78194697f8c7
:1032400043301a4617f002ff00e000bf00bfac3762
:10325000bd4690bd04ed00e0f0ed00e05e5344207b
:10326000ac5044205f534420f0544420b0ab4100a4
:04327000f8544420aa
:020000040000fa
:020000040040ba
:1032740080b59ab000af03463960fb71002017f0a7
:1032840013fe3b681b7803f06003dbb2602b0ad1aa
:10329400a64b3b633b6b1b6803f00103002b00d080
:1032a40000be0023bee23b681b7803f06003dbb280
:1032b400402b0ad19e4817f0f7fdfb793a680121ab
:1032c400184613f0a5f80346ace23b681b78c3f339
:1032d4000403dbb2022b00f0c381022b00f39582be
:1032e400002b03d0012b00f045818ee23b681b7854
:1032f40003f06003dbb2202b4ad13b689b889bb26e
:10330400fb85fb8ddbb287f83f3097f83f300f2bfe
:1033140001d9002386e297f83f30864a1344db79cb
:1033240087f82d300023bb62834b1b7897f82d2040
:103334009a420ad2814b196897f82d201346db0074
:1033440013449b000b44bb6213e07b4b1b7897f840
:103354002d20d31a87f82d3097f82d30002b08d163
:1033640097f82d201346db0013449b00744a134442
:10337400bb62bb6abb63bb6b002b01d1002351e270
:10338400fb793a68b96b184617f011f8034649e21d
:103394003b681b7803f06003dbb2002b0ad0634b5d
:1033a4003b643b6c1b6803f00103002b00d000bea0
:1033b400002337e23b685b78092b00f2ce8001a240
:1033c40052f823f0493540000b3540005f3540008a
:1033d400e53440005f354000f1334000cb34400019
:1033e4005f3540001134400027344000386816f03f
:1033f40099fd3b685b889bb2dab2fb7911461846ab
:1034040016f0a6f94b4b01225a70b2e0494b1b79d6
:10341400fb7407f11302f879012339680df020ffda
:10342400a7e03b685b889bb287f84f30414b1b7920
:1034340097f84f209a4240d03e4b1b79002b14d072
:10344400fb790021184617f01bfefb79184617f08c
:103454009eff384b5b7987f84e30fb7918460ef0a7
:10346400b7f8344a97f84e305371324a97f84f30d0
:10347400137197f84f30002b02d118f06ff91ce04c
:1034840097f84f20fb791146184605f089f9034651
:1034940083f00103dbb2002b0dd0264b00221a71fe
:1034a400224bbb64bb6c1b6803f00103002b00d0f0
:1034b40000be0023b6e118f04af9fb7939681846d2
:1034c40016f026f955e0fb793968184608f0ccf96e
:1034d400034683f00103dbb2002b49d00023a1e1b2
:1034e4003b685b889bb2012b0bd1124ad37843f023
:1034f4000203d370fb793968184616f009f900bf46
:1035040037e000238ee13b685b889bb2012b01d03e
:10351400002387e1074ad37823f00203d370fb79b1
:103524003968184616f0f4f823e000bff0ed00e027
:1035340015644100ac5044205f534420f0544420af
:10354400b0ab4100a54bdb783b8207f11002f87960
:10355400022339680df084fe0be0a14b7b647b6c85
:103564001b6803f00103002b00d000be002359e1c7
:1035740000bf56e13b689b889bb2fb84fb8cdbb2ab
:1035840087f8573097f857300f2b01d9002349e1ba
:1035940097f85730914a1344db7987f82530002394
:1035a4003b62904b1b7897f825209a420ad28e4ba7
:1035b400196897f825201346db0013449b000b443d
:1035c4003b6213e0874b1b7897f82520d31a87f8c2
:1035d400253097f82530002b08d197f8252013467d
:1035e400db0013449b00814a13443b623b6a3b6506
:1035f4003b6d002b01d1002314e1fb793a68396d4e
:10360400184616f0d4fe034683f00103dbb2002b08
:1036140000f006813b681b7803f06003dbb2002beb
:1036240001d00023fee0002017f03efc3b685b78ed
:103634000a2b02d00b2b0ad00fe00023fb7307f1f7
:103644000f02f879012339680df00afe07e0fb79cf
:103654003968184616f05cf801e00023e2e0dfe088
:103664003b689b889bb2bb83bb8bdbb287f867301c
:1036740097f86730bb77bb7f03f00f03dbb287f8a3
:10368400663097f86730fb77fb7fdb09dbb287f89e
:10369400653097f86630092b0ad9514bbb65bb6d71
:1036a4001b6803f00103002b00d000be0023b9e027
:1036b40097f8662097f86530484952000a44134445
:1036c40017331b78fb7600237b61464b1b78fa7e0d
:1036d4009a4209d2444b1968fa7e1346db0013441c
:1036e4009b000b447b610fe03e4b1b78fa7ed31aa0
:1036f400fb76fb7e002b07d1fa7e1346db001344d6
:103704009b003a4a13447b617b693b663b681b78a8
:1037140003f06003dbb2002b0cd03b6e002b01d115
:1037240000237fe0fb793a68396e184616f03ffeb5
:10373400034677e03b685b78032b1cd0032b57dcf4
:10374400002b02d0012b16d052e097f86720fb79aa
:103754001146184614f04cf80346002b01d00123ff
:1037640000e00023bb8107f10c02f87902233968d9
:103774000df076fd48e03b685b889bb2002b12d1cc
:103784003b685b78012b07d197f86720fb791146da
:10379400184612f055fa06e097f86720fb791146af
:1037a400184612f00ffa3b6e002b2cd0fb793a68c6
:1037b400396e184616f0fbfd002017f075fb074b19
:1037c40093f82c30c3f30003dbb2002b1bd1fb793d
:1037d4003968184615f09cff15e000bfac50442032
:1037e400f0ed00e05f534420f0544420b0ab4100be
:1037f4000e4bfb65fb6d1b6803f00103002b00d02f
:1038040000be00230ee000bf0be0084b7b637b6b24
:103814001b6803f00103002b00d000be002301e06d
:1038240000bf012318466837bd4680bdf0ed00e0b7
:020000040000fa
:020000040040ba
:10383400b0b590b004af002387f82530794b1b68ee
:103844000133784a1360784b1b780133dab2764b34
:103854001a700023bb62754b1b68fb6241e2fb6a72
:103864009a7f714b1b789a4205d1fb6abb62fb6a53
:10387400db68fb6235e26c4b1a78fb6a9a770023ab
:1038840087f82730002387f82630fb6a1b7d022b3c
:103894000ad1fb6a93f84230052b05d997f82730f3
:1038a400013387f82730fbe0fb6a93f842300b2b97
:1038b40005d997f82730013387f82730f0e0fb6a01
:1038c40093f89930002b5fd0fb6a93f89a300b2b56
:1038d40005d997f82730013387f82730e0e0fb6af1
:1038e40093f89930013b524ad35c7b74fb6a93f89a
:1038f40098307a7c9a4207d9fb6a93f8983001335e
:10390400dab2fb6a83f89820fb6a93f898307a7ce1
:103914009a4200f2c58001233b62fb6ab3f860302f
:10392400002b08d1f86a0af045fc0346002b14d09a
:1039340000233b6211e0fb6ab3f860301946f86a71
:1039440005f0fcfe0346002b07d1f86a02f090fa5a
:103954000346002b01d100233b623b6a002b00f09d
:103964009f80fb6a002283f89820fb6a93f89930c1
:10397400062b00f29580fb6a93f899300133dab292
:10398400fb6a83f899208be0fb6ab3f93030002b93
:103994000fdbfb6ab3f9303047f6ff72934208d06d
:1039a400fb6ab3f930309bb201339bb21ab2fb6aa3
:1039b4001a86fb6ab3f93020fb6ab3f940309a42a5
:1039c4006edbf86a0ef08cfd0346002b07d0fb6a11
:1039d4001b6f002b64d1fb6adb6e002b60d0fb6a8b
:1039e4001b7d022b2dd0fb6a93f842300c2b28bf91
:1039f4000c23fb76fb6ab3f93c30db101bb21a468e
:103a0400fb6ab3f93e301344fa7e0a498a5c934058
:103a14007b617b6947f6fe7293420ddc7b691ab2c7
:103a24000ce000bfb4544420eb504420c054442064
:103a340028b84100d4b7410047f6ff72fb6aa3f8e7
:103a44004020fb6a00221a86fb6ab3f86020fb6af6
:103a5400b3f84830934228bf13467b827b8a5b08c5
:103a64009ab2fb6aa3f84a20fb6ab3f84a20fb6abd
:103a74005b8e5b009bb29a4206d2fb6a5b8e5b0054
:103a84009ab2fb6aa3f84a20fb6a5a8efb6aa3f82f
:103a94004820fb6a0022a3f86a20f86a16f0e4fbc7
:103aa400fb6a1b7d062b11d1fb6a5b8b03f01003b1
:103ab400002b0bd09f4b1a68fb6a1b6ad31a282b66
:103ac40004d997f82730013387f82730fb6a5b7aeb
:103ad40003f00803002b4ad0fb6a1b7d042b03d0a0
:103ae400fb6a1b7d072b42d1924b1a68fb6a1b6a47
:103af400d21afb6ad3f894108f4b0b448f49a1fb65
:103b040003135b099a420ad997f82730013387f8df
:103b1400273097f82630013387f8263027e0854b85
:103b24001a68fb6a1b6ad21afb6ad3f89410fb6a00
:103b340093f89b301846824b00fb03f30b447f49f8
:103b4400a1fb03135b099a4211d9f86a13f0eefb47
:103b5400034687f8253097f92530002b07d1fb6af7
:103b640093f89b300133dab2fb6a83f89b20fb6a3b
:103b74005b6f002b11d06f4b1a68fb6a1b6ad21a59
:103b8400fb6ab3f9403019460b465b000b445b00fb
:103b94009a4202d3f86a16f0cdfefb6a1b7d032b12
:103ba4000bd1644b1a68fb6a1b6ad31a282b04d9fd
:103bb40097f82730013387f82730fb6a1b7d092be0
:103bc4000bd15c4b1a68fb6a1b6ad31af02b04d91d
:103bd40097f82730013387f8273097f82730002be0
:103be40048d0fb6ad3f89030fb60f86a11f06efba2
:103bf400bb6a002b04d0fb6ada68bb6ada6003e0b4
:103c0400fb6adb684f4a136097f82630002b13d009
:103c1400fb6a186dfb6a5c6afd6afb6a0433fa6a24
:103c2400d28af96a098b0291019200932b462246ab
:103c34000146f86a12f08afffb6a1b69bb60fb6ae3
:103c44001b7dfb71fb6a3b60fb6adb68fb623868c7
:103c540017f0e0fa3c4b00221a70fb68002b04d0ea
:103c6400fb686ff00c01b8689847374b1b78002b42
:103c740037d0eee5fb6abb62fb6adb68fb62bb6aba
:103c84001b7f0133dab2bb6a1a77bb6a1a7fbb6a3d
:103c94005b7f9a4225d3bb6a00221a772a4b002203
:103ca4001a70bb6ad3f88c30002b0bd0bb6ad3f8e4
:103cb4008c30ba6a1269b96a10469847034687f885
:103cc400253002e0002387f825301f4b1b78002b9a
:103cd40000d0bee597f92530002b02d1b86a02f076
:103ce400c7f8fb6a002b7ff4baad0023bb62174b05
:103cf4001b68fb623ee0002387f827300d4b1a68ef
:103d0400fb6a1b6ad31af02b04d997f827300133c6
:103d140087f8273097f82730002b26d0f86a11f05f
:103d2400d5fabb6a002b13d0fb6ada68bb6ada6087
:103d340012e000bfb4544420b84c0a00d34d6210c2
:103d4400f8240100c0544420a74b4420c454442008
:103d5400fb6adb680b4a1360fb6afb61fb6adb6886
:103d6400fb62f86917f056fa04e0fb6abb62fb6a6f
:103d7400db68fb62fb6a002bbdd100bf00bf30379c
:083d8400bd46b0bdc45444204b
:020000040000fa
:020000040040ba
:103d8c0090b59bb004aff860b96011461a460b466b
:103d9c00fb8013467b7100237b6500233b6500236e
:103dac00fb640023bb6400237b640023a7f8423030
:103dbc00002387f8273000237b820023fb87002316
:103dcc00bb87fb68002b02d16ff00f037be2fb6813
:103ddc00b3f862305b089ab2fb685b8e934228bfe3
:103dec001346bb84bb8c002b02d1fb685b8e00e0be
:103dfc00bb8cbb84bb68002b02d16ff00f0362e25b
:103e0c00fb881946f8680ff00dfb034687f8233042
:103e1c0097f92330002b02d097f9233053e2fb683b
:103e2c00b3f86630a7f84030002387f82230fb68df
:103e3c00db6e002b00f05f81fb68db6e3b6502e004
:103e4c003b6d1b683b653b6d1b68002bf8d13b6dd4
:103e5c009b7a9b009bb203f004033b843b6d1a8955
:103e6c003b8c13449bb2ba8cd31a7b87fb68b3f898
:103e7c0068307b827b8a002b1bd03b6dfb647b8a7a
:103e8c00fa88934228bf13469bb27a8f934228bf7d
:103e9c001346fb87b7f84220fb8f1344a7f8423038
:103eac007a8afb8fd31a9bb27b827a8ffb8fd31ac1
:103ebc007b87b7f84220fb889a4280f01c817b8f6d
:103ecc00002b00f018813b6d1b89002b00f0138137
:103edc00fa88b7f84230d21a7b8f9342a8bf1346a8
:103eec00fb833b6dfb647b7903f00103002b27d034
:103efc0007f112007a8ff98b012302937b790193de
:103f0c00fb680093034600200ff0ecfe78657b6d98
:103f1c00002b00f0aa817b6d5868b7f84230ba6864
:103f2c001344fa8b194617f0ddf9786d16f0f6f993
:103f3c0003461a46b7f840301344a7f8403036e031
:103f4c003b6d5b687b6302e07b6b1b687b637b6b0d
:103f5c001b68002bf8d17b6b1b7b03f0c003002b81
:103f6c000ad17b6b5b687a6b52891344ba689a42ac
:103f7c0002d1fb8bbb871ae0fb8b01221946002078
:103f8c0008f0f5fc78657b6d002b00f07081b7f8bc
:103f9c004230ba681a447b6d5a60786d16f0bef9df
:103fac0003461a46b7f840301344a7f84030b7f828
:103fbc004220fb8b1344a7f842309ce0fa88b7f8f8
:103fcc004230d31abb8397f822309bb2ba8cd31ae7
:103fdc007b837a8bbb8b934228bf13463b837b79c5
:103fec0003f00103002b2ad097f822309ab23b8bb6
:103ffc00134499b27b6c002b0cbf01230023dbb262
:10400c0007f11200ba8c02937b790193fb68009341
:10401c00034636200ff066fe38633b6b002b00f036
:10402c0028813b6b5a6897f82230d018b7f8423089
:10403c00ba6813443a8b194617f054f925e03b8bb8
:10404c0001221946362008f092fc78617b69002b1e
:10405c0000f01181b7f84230ba681a447b695a6093
:10406c0097f822309bb24ff420721946362008f094
:10407c007efc38633b6b002b03d178690ff085fa1b
:10408c00fce07969386b13f0c0fc386b16f046f91c
:10409c0003461a46b7f840301344a7f84030b7f837
:1040ac004030102b03d9386b0ff06ffae6e0fb6849
:1040bc00da6db7f842301a4497f82730009313465c
:1040cc000022396bf8680cf06df9f864fb6c002b6e
:1040dc0000f0d3807b6c002b02d1fb6c7b6402e084
:1040ec00bb6cfa6c1a60fb6cbb64b7f842203b8b60
:1040fc001344a7f84230b7f84220fb889a42fff4e9
:10410c005daffb8f002b2cd03b6d5b68fb621ee020
:10411c00fb6a1a89fb8f13449ab2fb6a1a81fb6af9
:10412c001b68002b10d1fb6a5b68fa6a5289134436
:10413c00fa8fb968184617f0d5f8fb6a5a89fb8fc5
:10414c0013449ab2fb6a5a81fb6a1b68fb62fb6ad6
:10415c00002bddd13b6d1a89fb8f13449ab23b6d5a
:10416c001a817a8afb68a3f868207b6d002b0ed02d
:10417c003b6d5b68796d184613f047fc3b6d1a89f3
:10418c007b6d1b8913449ab23b6d1a812be0bb8f5c
:10419c00002b28d03b6d002b3b6d5b68bb6209e0ac
:1041ac00bb6a1a89bb8f13449ab2bb6a1a81bb6a69
:1041bc001b68bb62bb6a1b68002bf1d1bb6a1a89f6
:1041cc00bb8f13449ab2bb6a1a81bb6a5a89bb8fe4
:1041dc0013449ab2bb6a5a813b6d1a89bb8f134444
:1041ec009ab23b6d1a813b6d002b03d1fb687a6c44
:1041fc00da6602e03b6d7a6c1a60fb68da6dfb885c
:10420c001a44fb68da65fb68b3f86420fb88d31aa0
:10421c009ab2fb68a3f86420fb68b7f84020a3f8b7
:10422c006620fb68b3f86630002b02d0fb681b6f6e
:10423c00002bfb6c002b16d0fb6cdb68002b12d018
:10424c007b7903f00203002b0dd1fb6cdb689b899f
:10425c009cb2082016f0b0f903461a46fb6cdb68da
:10426c00224392b29a8100232de000bf06e000bfea
:10427c0004e000bf02e000bf00e000bffb685b8b06
:10428c0043f080039ab2fb685a83114bb3f89c300d
:10429c0001339ab20e4ba3f89c207b6d002b02d0fd
:1042ac00786d0ff072f97b6c002b02d0786c16f0e5
:1042bc001bfafb68b3f86630002b02d0fb681b6f4f
:1042cc00002b4ff0ff3318465c37bd4690bd00bf46
:0442dc003046442004
:020000040000fa
:020000040040ba
:1042e00080b5aab000af0346fb71c44afb794c33da
:1042f00052f82330c7f8a030c04afb79703352f827
:104300002330d7f8a0201340c7f8a030bb4afb7970
:104310004c3352f823301b0d9bb2c3f30a03a7f8aa
:10432000a630fb791b01b64a1344c7f89c30fb79d1
:10433000002b40f02681d7f8a03003f00403002bb7
:1043400037d0ae4bd3f830315b0cdbb203f0010356
:10435000dab2ac4b1a70b7f8a630082b21d1aa4bb1
:10436000c7f89030002387f88930d7f89030c7f825
:104370008430012387f8833097f889303b76062311
:104380007b76d7f8842007f11c031068516803c3bb
:1043900097f8832007f1180311461846fef788fcaa
:1043a00000bf964b0422c3f86021944b0422c3f84b
:1043b0002022d7f8a03003f00203002b00f09480f5
:1043c000914bc7f88c30b7f8a630002b47d0d7f800
:1043d0009c309b88002b42d0d7f89c309a88d7f825
:1043e0009c30db88d31aa7f88a30b7f8a620b7f834
:1043f0008a309a4203d9b7f88a30a7f8a630d7f89e
:104400009c301b68002b0ed0d7f89c301b68d7f867
:104410009c20d2881344b7f8a620d7f88c101846f1
:1044200016f066ff11e0d7f89c30db68fb67d7f821
:104430008c30bb67b7f8a630a7f87630b7f876208f
:104440000023b96ff86f02f029fdd7f89c30da88a5
:10445000b7f8a63013449ab2d7f89c30da80674b8d
:104460000222c3f86021d7f89c301b89b7f8a62038
:104470009a4207d3d7f89c30da88d7f89c309b88cb
:104480009a4231d1d7f89c30db88002287f875201a
:10449000002287f874203b67002387f86f300123e0
:1044a00087f86e3097f875303b7307237b7397f866
:1044b00074303b743b6f7b6197f86f307b7497f877
:1044c0006e2007f10c0311461846fef7f1fb00bf02
:1044d0004a4b0222c3f820224a4b1b78012b03d1fe
:1044e000464b0422c3f8f021d7f8a03003f00103b3
:1044f000002b00f04181414b0122c3f82022d7f864
:104500009c309a88d7f89c30db889a4205d00021ed
:10451000d7f89c000df022ff2ee1d7f89c309b8845
:10452000002287f86d20802287f86c20bb6600236c
:1045300087f86730012387f8663097f86d3087f881
:104540002430072387f8253097f86c3087f8283017
:10455000bb6efb6297f8673087f8293097f86620c2
:1045600007f1240311461846fef7a2fb00bf254bb6
:104570001b78002b40f00081204b0422c3f8f0216f
:10458000fae0d7f8a03003f00203002b00f0a78078
:10459000b7f8a630002b55d0d7f89c309b88002b5d
:1045a00050d0d7f89c309a88d7f89c30db88d31a43
:1045b000a7f89a30b7f8a620b7f89a309a4203d9ec
:1045c000b7f89a30a7f8a630fb79da030e4b1344fc
:1045d000c7f89430d7f89c301b68002b16d0d7f85a
:1045e0009c301b68d7f89c20d2881344b7f8a620cb
:1045f000d7f89410184616f07bfe19e000800340af
:104600007c4944206a534420000010a0d7f89c3015
:10461000db683b66d7f89430fb65b7f8a630a7f89f
:104620005a30b7f85a200023f96d386e02f036fc84
:10463000d7f89c30da88b7f8a63013449ab2d7f886
:104640009c30da804e4afb7988334ff4804142f83f
:1046500023104b4afb795833022142f82310d7f834
:104660009c301b89b7f8a6209a4207d3d7f89c3014
:10467000da88d7f89c309b889a4230d1d7f89c30a2
:10468000db881a46002387f85930fb7987f85830c1
:104690007a65002387f85330012387f8523097f862
:1046a000593087f83030072387f8313097f8583081
:1046b00087f834307b6dbb6397f8533087f835301b
:1046c00097f8522007f1300311461846fef7f0fa2a
:1046d00000bf2b4afb798833022142f82310d7f818
:1046e000a03003f00103002b46d0254afb79583354
:1046f000012142f82310d7f89c309a88d7f89c30d3
:10470000db889a4206d0fb791946d7f89c000df059
:1047100025fe31e0fb79803bdab2d7f89c309b88ec
:10472000002187f8511087f85020fb64002387f898
:104730004b30012387f84a3097f8513087f83c30e6
:10474000072387f83d3097f8503087f84030fb6cee
:104750007b6497f84b3087f8413097f84a2007f18f
:104760003c0311461846fef7a3fa00bf044afb7942
:104770008833012142f8231000bfa837bd4680bd11
:044780000080034072
:020000040000fa
:020000040040ba
:104784002de9f04f95b000af78600b46fb7016f042
:104794007bfb034683f00103dbb2002b40f0df8197
:1047a400b74b1b68bb6307f108037b637b683b6300
:1047b4003b6bfb62fb6ab3f1ff3f02d14ff0ff3367
:1047c40044e0fb6a002b01d100233fe0fb6a002296
:1047d4009846914642464b464ff000004ff0000188
:1047e400590141ead261500102460b46b2eb08047a
:1047f40063eb09054ff000024ff00003ab0043eafe
:104804009473a20014461d4614eb080a45eb090be9
:104814004ff000024ff000034feacb0343ea5a7310
:104824004feaca0292469b46504659464ff47a7262
:104834004ff0000315f030fd02460b461346bb62f1
:10484400bb6a002b01d10123bb62bb6a1a46796b98
:10485400b86b06f07ffc0346002b14bf0123002332
:10486400dbb283f00103dbb2002b40f07a817b7a68
:10487400013b072b00f24d8101a252f823f000bf47
:10488400a5484000b5484000e74a4000a14a40001e
:10489400c74a4000c34840006f494000d74a40001f
:1048a4003b7a184616f03ffb3a7b764b5a7147e148
:1048b4003b7a184616f037fb16f050ff40e1724b76
:1048c4001b78dbb2002b0ad1704b3b643b6c1b683a
:1048d40003f00103002b00f0468100be43e16a4b64
:1048e4001b78dbb2013bdab2674b1a70664b1b785c
:1048f400dbb2002b40f01781624b01221a70614a2f
:1049040092f82b3023f0010382f82b305d4a92f8a1
:104914002b3023f0040382f82b305a4a92f82c30bf
:1049240023f0010382f82c30564a92f82c3023f0fd
:10493400040382f82c303a7a07f108030433194649
:104944001046fef795fc034683f00103dbb2002b0f
:1049540000f0eb803b7a0021184613f0edff3b7a20
:104964008021184613f0e8ffdfe03b7b87f84f30e7
:1049740097f84f3087f8263097f8263003f00f0366
:10498400dbb287f84e3097f84f3087f8273097f826
:104994002730db09dbb287f84d3097f84e2097f8c3
:1049a4004d30384952000a44134403f12802d378a5
:1049b40023f00103d37097f84e2097f84d30314916
:1049c40052000a44134403f12802d37823f0040369
:1049d400d37097f84e30002b07d1387a7a7b3b6935
:1049e40097f84f1008f05afbaae097f84e2097f872
:1049f4004d30244952000a44134417331b7887f876
:104a0400253000233b62224b1b7897f825209a42dd
:104a14000ad2204b196897f825201346db0013446b
:104a24009b000b443b6213e0194b1b7897f825203d
:104a3400d31a87f8253097f82530002b08d197f83a
:104a440025201346db0013449b00134a13443b62a6
:104a54003b6abb64bb6c002b09d10c4b7b647b6c45
:104a64001b6803f00103002b7fd000be7de0bb6c0c
:104a74009e69387a7a7b3b6997f84f10b0475fe0bc
:104a8400f8544420ac5044205e534420f0ed00e040
:104a94005f534420f0544420b0ab4100364b1b78a4
:104aa400dbb2002b43d0344bdb78c3f34003dbb2df
:104ab400002b14bf01230023dbb2184616f05cfc64
:104ac40035e02d4b1b78dbb2002b32d016f04dfeb7
:104ad4002fe0fb68002b2ed0fb683a6910469847fc
:104ae40029e0254b9b79dbb2fb610023fb76fb7e3f
:104af400fa6922fa03f303f00103002b14bf012324
:104b04000023dbb2002b18d0fb68184616f0eefc2d
:104b140013e01a4bfb63fb6b1b6803f00103002bd0
:104b24000dd000be0be000bf0ae000bf08e000bfec
:104b340006e000bf04e000bf02e000bf00e000bfe9
:104b44000f4b1b687b61786914f0a2fc0346002bb1
:104b54000cbf01230023dbb2002b08d120e600bfe9
:104b640006e000bf04e000bf02e000bf00e000bfb9
:104b74005437bd46bde8f08fac504420f0ed00e062
:044b8400f85444207d
:020000040000fa
:020000040040ba
:104b88002de9f04397b000aff860b9607a60fb6830
:104b9800db68fb63fb6b9b8d002b0ad19349f8689c
:104ba80014f0cefa924b1b681946f86814f0c8fa4c
:104bb800cfe1b86812f0a4fe03467b877b8f002bf9
:104bc80040f005816b461e462023fb62fb6a013bd1
:104bd800bb62fb6a0022984691464ff000024ff0f4
:104be80000034fea491343ead8634fea4812fb6ac5
:104bf80000221c4615464ff000024ff000036b01df
:104c080043ead4636201fb6a9b000733db08db00dd
:104c1800adeb030d6b4603339b089b007b620023bf
:104c28007b6500233b6533e0fb6b596a3a6d13469d
:104c38005b001344db000b441b68bb61bb69002ba2
:104c480006d06c49b86916f0abfb0346002b1bd1a4
:104c5800bb69002b01d0bb6900e0674b7b617a6db3
:104c6800796a786913f044ff38613b69002b0cdae4
:104c78007a6dfb6a9a4208da7b6d5a1c7a657a6a01
:104c8800796942f8231000e000bf3b6d01333b65b2
:104c9800fb6b9b8d1a463b6d9342c5db7b6d002bee
:104ca8000bd15249f86814f04bfa514b1b6819465e
:104cb800f86814f045fab5464be10023fb647fe041
:104cc8004e49f86814f03cfa7b6afa6c53f82230c3
:104cd8001946f86814f034fa4949f86814f030fabb
:104ce800434b1b681946f86814f02afa0023bb6482
:104cf80057e0fb6b596aba6c13465b001344db0040
:104d08000b441b683b623b6a002b01d03b6a00e006
:104d1800394bfb617b6afa6c53f822301946f86903
:104d280016f03efb0346002b38d13649f86814f0dc
:104d380007fafb6b596aba6c13465b001344db0035
:104d48000b445b681c221946f86813f077fc2e495f
:104d5800f86814f0f5f9fb6b596aba6c13465b00f6
:104d68001344db000b449b68002b0dd0fb6b596a86
:104d7800ba6c13465b001344db000b449b6819466e
:104d8800f86814f0ddf903e02049f86814f0d8f960
:104d9800174b1b681946f86814f0d2f9bb6c01333d
:104da800bb64fb6b9b8d1a46bb6c9342a1db104b1b
:104db8001b681946f86814f0c3f9fb6c0133fb64ef
:104dc800fa6c7b6d9a42fff67bafb546c1e07b8fec
:104dd800012b40f0b4800121b86814f07fff78639c
:104de800002387f8473000233b6495e0b4cb4000ac
:104df80018564420d8cb4000dccb400044cb4000c0
:104e080048cb40004ccb400054cb400058cb40002e
:104e1800fb6b596a3a6c13465b001344db000b4486
:104e28005b68796b184616f0bbfa0346002b70d105
:104e3800fb6b596a3a6c13465b001344db000b4466
:104e48001b683b633b6b002b06d04449386b16f05c
:104e5800a7fa0346002b5bd1012387f84730404966
:104e6800f86814f06df9fb6b596a3a6c13465b00ed
:104e78001344db000b445b681946f86814f060f9ca
:104e8800384b1b681946f86814f05af93649f8681f
:104e980014f056f93b6b002b01d03b6b00e0334b11
:104ea8001946f86814f04cf92e4b1b681946f86837
:104eb80014f046f9fb6b596a3a6c13465b001344cd
:104ec800db000b449b68002b17d02949f86814f0c5
:104ed80037f9fb6b596a3a6c13465b001344db00e5
:104ee8000b449b681946f86814f02af91d4b1b6897
:104ef8001946f86814f024f915e01e49f86814f00a
:104f08001ff9184b1b681946f86814f019f90ae0dc
:104f180000bf3b6c01333b64fb6b9b8d1a463b6cbb
:104f28009342fff675af97f8473083f00103dbb281
:104f3800002b0ed0796bf86813f0f2ff09e00e49e8
:104f4800f86814f0fdf8074b1b681946f86814f068
:104f5800f7f85c37bd46bde8f08300bfd8cb40000a
:104f680064cb40001856442070cb4000dccb400096
:0c4f78007ccb400058cb4000e8cb400050
:020000040000fa
:020000040040ba
:104f84002de9f04f242985b0dde90e8a05460e4649
:104f9400144601d8012903d1a14b16221a6048e016
:104fa400eb6bea6c93424bd25a1cea6318782028c4
:104fb400f6d0a0f10903042bf2d92b2801d02d2817
:104fc40046d1eb6bea6c2d284ff0ff3b18bf4ff036
:104fd400000b934238d25a1cea631878ea6cdff863
:104fe4004892002e00f09f81102e40f0a0813028be
:104ff40040f09d81eb6b93422dd25a1cea631878e2
:1050040040f02003782b35d1eb6bea6c934226d227
:105014005a1cea63187809eb00035b780f2b40f203
:10502400e580eb6c002b00f07581eb6bdcb1023b8f
:10503400eb63002427462046394605b0bde8f08fcf
:10504400284612f049feb2e7284612f045fec5e7ad
:105054004ff0000bc2e7284612f03efed0e7284688
:1050640012f03afed7e7013beb630021284616f025
:1050740055f9dee7002e14bf10260826741e3440ae
:1050840040f0168117237343c3f342134b4493f840
:10509400013100bf09eb00025278964203d9b4f102
:1050a400006fc0f0a5804ff0ff32c3f1200e22fa4a
:1050b40003f102fa0efea3f1200c22fa0cfc41eae1
:1050c4000e01da40002741ea0c01019209eb000cc1
:1050d4009cf801c0664555d9019aa14272eb070eae
:1050e40050d3a3f1200e04fa0efec3f120009f401a
:1050f40024fa00f047ea0e07ea6b0743e86c9c4089
:1051040082424cea040480f08380501ce8631078e7
:10511400dce70a2eb2d1434f00240ce0ea6beb6cbf
:1051240004eb840400eb44049a42a4f1300449d211
:10513400531ceb631078a0f13003092b01d8bc4257
:10514400ecd30027a0f13003092b21d84ff099327a
:10515400a24202f10042ba4114d34ff00a0ca4fb5c
:105164000c210cfb07110191991801994feae37c7a
:105174005ceb01014ff0000e28bf4ff0010ebef1b1
:10518400000f23d009eb00035b78b342c0f09d808d
:10519400eb6c13b1eb6b013beb63444577eb0a0318
:1051a400c0f0b08018f0010f40f0a280bbf1000ff6
:1051b40040f0b4801a4b222218f1ff341a604af1ed
:1051c400ff3738e7284612f087fdb4e7d418019b6f
:1051d400ea6b4ceb0307eb6c9a4203d2531ceb6370
:1051e4001078afe7284612f077fdabe7102645e7c5
:1051f4009c40e96b1443ea6c914203d24a1cea6373
:10520400087847e72846019312f066fd019b41e7c1
:105214002846cde9023112f05ffddde9023155e7a0
:10522400085544209999991988fa4000ea6c04fbbe
:105234000634eb6b934237d25a1cea63187809ebb5
:1052440000035b789e4202d9404a9442eed900277b
:1052540009eb00035a78964294d9002357b1a6fb70
:10526400043ca6fb071311eb0c0143f10003003bc4
:1052740018bf0123002b85d1a6fb041c06fb07cc19
:1052840012eb010e5cf1000e28bf0123002b7ff40a
:1052940079af8c18eb6cea6b4cf100079a4209d297
:1052a400531ceb631078d3e7284612f015fdc6e7cc
:1052b4000024c4e7284612f00ffdc9e7eb6bea6c43
:1052c400934211d25a1cea63187848444378b34293
:1052d400f4d31f4b222218f0010f1a60444657469c
:1052e40018bf4ff0000b53e7284612f0f5fcece72b
:1052f400a0457aeb070305d2154b22221a604446d7
:10530400574698e6bbf1000f3ff495ae644267eb55
:10531400470790e6002c7ff48caea6e6a0457aeb16
:105324000703f3d2e8e730283ff464ae0a2609eb1a
:1053340000035b78b342fff4ecae12b1eb6b013bbc
:10534400eb630021284615f0e9ff25e6c6711c072a
:045354000855442094
:020000040000fa
:020000040040ba
:105358002de9f04f2ded0a8b92ed008b8db01e4696
:10536800b5eec08b0b69d1f808a0cc680590f1eeba
:1053780010fad1e9009b069307d419f0040f30d135
:1053880019f008052fd0202302e02d23b1ee488b19
:1053980023700af1ff32012518ee903a18ee100a30
:1053a80023f00041bc4b4ff00008994208bf40452c
:1053b8001bd1413e192e94bfb849b949601916f05e
:1053c8000cfab74815f09cffcdf8009002465346fa
:1053d8000598214610f070fc0db0bdec0a8bbde8b5
:1053e800f08f2b23d4e75246d6e780458b41a6f1b0
:1053f8004103039308d2192b94bfaa49aa496019fb
:1054080016f0ebf9a848dde730216155b5ee408b81
:105418000399b7ee009b192905f101038cbf782188
:105428005821f1ee10fae15405f10205a2f1020249
:1054380040f0ec80b0ee49bbb0ee48cbbbf1000fba
:105448009fed8fabacbf5b461823591c002700bfec
:105458008cee0b0bcde9073104920df095fbbbf1f7
:10546800000f00ee4bcbdde907312bee0abb049aa7
:1054780007f1010704dab5ee40cbf1ee10fa02d0dd
:105488008f42e5d15f1cb2ee007b2bee077bb4eeba
:10549800c7cbf1ee10fa00f1dc80b4ee47cbf1eea9
:1054a80010fa09d1bdeec00b9fed776b10ee103ae4
:1054b80013f0010f06fe077b38ee078b18ee903ac3
:1054c80018ee10ca744923f000400023884208bf30
:1054d8009c453ff46eaf06990539a942079140f201
:1054e8001481794208912e46ae461f46049300bfa8
:1054f80088ee090bcde90a23cdf824e00df044fb32
:10550800fdeec07bdde909e2b0ee40bb17ee900a84
:105518000b9b002840f0a080002b00f09d800137f5
:1055280008990bee498b013b8b4229ee0a9b03d06d
:1055380007998e42b646dbd3049bcbb9002f40f3c4
:10554800e580bbf1000f40f3e18019f0010f40f056
:10555800dd80a3192e211970b9192144302000bf0c
:1055680003f8010f8b42fbd13e44ff4301363a4416
:10557800069b0021a019013b88450170b8bfc8f1fe
:105588000008e1544ff00107b8bf01214ff00a0ba2
:1055980003f1ff3cb8f1000f40f0a580012f00f0a7
:1055a800a28000290cbf2b212d2104f80c1003998f
:1055b800023b192904eb03018cbf4ff0700c4ff02c
:1055c800500c9e4281f800c003da039216f005f9e8
:1055d800039a09f00303022b11d11744033f002f4c
:1055e8000ddd204615f08cfee319a84280f2898073
:1055f8003a463021601915f095ff4ff0000a204611
:10560800e0e600bf08f10108b0ee479b39ee097be0
:10561800b4eec78bf1ee10faf4d5b6ee007b9fed31
:105628001c6b00bfb4eec98bf1ee10fa7ff502af28
:1056380029ee075bb5ee405bf1ee10fa08bf29eee4
:10564800069b08f1ff3808bf28ee068b29ee079b5a
:10565800e8e79fed0d7b2fe7049941b93bb14ff087
:105668002e0c012104f80ec00136013a0491e1190b
:1056780004eb060c31444ff0300e19e0aff3008014
:10568800000000000000b03f000000000000000023
:1056980000000000000050430000f07ff4ae41001d
:1056a800f8ae4100fcae410000af41000cf801eb40
:1056b8008c45fbd1f119d71b039a0928d4bf303088
:1056c8005730192a0ad840f02002613a192a05d819
:1056d800cde9093116f063f8dde909317a1e605425
:1056e8004e1c00271ce7634698fbfbfe0eeb8e0c56
:1056f800a8eb4c0c0cf1300c04f803c0f046013f49
:1057080046e7225c1a5401386fe72e4619f0100f4d
:0c5718003ff42eaf2e23a355013629e7e5
:020000040000fa
:020000040040ba
:04572400040000007d
:020000040000fa
:020000040040ba
:105728002de9f04f2ded0a8b92ed009b8fb0b5ee71
:10573800c09b05938b680493f1ee10fa0b69cd6852
:105748000690d1e900a78b46089308d41af0040ff5
:1057580034d11af00803039332d0202302e02d231a
:10576800b1ee499b2b70049b03f1ff39012303938e
:1057780019ee903a19ee101a23f00042c04b00249b
:105788009a4208bfa1421ed1059b0398413b192ba1
:1057980094bfbc49bc49284416f01ff8284615f0a8
:1057a800affd049bcdf800a002462946069810f0ec
:1057b80083fa0fb0bdec0a8bbde8f08f2b23d1e73d
:1057c800ddf81090d4e78c42934108d2059b0398ea
:1057d800413b192b94bfad49ad492844dce7b5eef0
:1057e800409bf1ee10fab2ee04cbb7ee00ab40f0fe
:1057f800c080059815f0daff002fc0b2c0f26281b0
:10580800672840f0d580002f08bf0127231dc0f26c
:10581800d180bc4280f2ce80002c4ff066080cdab2
:10582800b8f1660f07f1010707d1002c02dab7eecd
:1058380000ab0024672800d027440023b0ee4a8b31
:10584800b0ee49bb8bee080b099307900df09cf95d
:10585800099b90ee08bb01339f420798b1ee4bbb02
:1058680088ee0c8beed1b1ee047b28ee078bb4eefc
:10587800cb8bf1ee10fa00f3a080b4ee4b8bf1ee77
:1058880010fa09d1bdeec00b9fed796b10ee103afe
:1058980013f0010f06fe088b39ee088b2aee0c9bdd
:1058a800b4eec89bf1ee10fa00f28a80b8f1660fe8
:1058b80004f1010440f0868001372146cb1b002209
:1058c800039f0a9316460a9b994240f0a5803346e7
:1058d800002e00f0df80e8190022b8f1650f027091
:1058e80029d1089b013b9442ea54bcbf644201227f
:1058f8004ff0020b4ff00a0e591e002c40f0d180d9
:10590800bbf1000f00f3cd80002a0cbf2b222d2203
:105918006a54059a023b413a192a05eb030198bfdc
:105928004ff045089f4281f8008001da15f055ffd5
:10593800cb44abf104090af00303022b7ff42eaf2a
:10594800b9f1000f7ff72aaf284615f0d9fc05eb0f
:105958000903039a824240f3b18003984a463021f2
:10596800284415f0dffd0023049317e70134b0ee57
:1059780047ab2aee0c7bb4eec79bf1ee10faf5d5d7
:105988009fed3d7b00230be014f5967f05da23b9e4
:1059980029ee079b2aee07ab0123013c8aee0cabec
:1059a800b4eeca9bf1ee10faeed422e706272de7f3
:1059b800804635e74ff065083fe79fed2d8b6be795
:1059c800b0ee4a9bb8f1650f14bf2146002175e778
:1059d8004eb9002907da079e2e23ab55012301375c
